:020000040800F2
:10000000D815002061010008D93F000835310008EB
:10001000D53F00089F020008C14C00080000000006
:100020000000000000000000000000006146000821
:10003000A92C0008000000009D430008514700085B
:100040007B0100087B0100087B0100087B010008A0
:100050007B0100087B0100087B0100087B01000890
:100060007B0100087B0100087B0100087B01000880
:100070007B0100087B0100087B0100087B01000870
:100080004D2C00086D2C00087B0100087B01000846
:100090007B0100087B0100087B0100087B01000850
:1000A0007B0100087B0100087B0100087B01000840
:1000B0007B0100087B0100087B0100084931000832
:1000C0003931000800000000000000007B0100083A
:1000D0007B010008A14C0008B14C00087B0100081E
:1000E0007B0100087B0100087B0100087B01000800
:1000F0007B0100087B0100087B0100080000000074
:1001000000000000000000007B010008000000006B
:100110007B0100080000000000000000000000005B
:100120007B0100087B0100087B0100087B010008BF
:100130007B0100087B0100087B0100087B010008AF
:100140007B0100087B010008DFF810D000F066F8A2
:1001500000480047694F0008AFF30080D815002021
:100160000648804706480047FEE7FEE7FEE7FEE751
:10017000FEE7FEE7FEE7FEE7FEE7FEE75947000879
:1001800049010008202A04DB203A21FA02F000216C
:10019000704721FA02F3D040C2F120029140084397
:1001A00019467047002800DA4042704740EA0103D0
:1001B0009B0703D009E008C9121F08C0042AFAD21D
:1001C00003E011F8013B00F8013B521EF9D27047E1
:1001D000D2B201E000F8012B491EFBD27047002289
:1001E000F6E710B513460A4604461946FFF7F0FF36
:1001F000204610BD00F0004230F000400AD0C10D92
:1002000001F56071C0F3160042EA0151C2084007CF
:10021000114370470020014670470000064C074D0F
:1002200006E0E06840F0010394E8070098471034C6
:10023000AC42F6D3FFF78CFF085700082857000898
:1002400070B58D1810F8014B14F0030201D110F8AD
:10025000012B231106D110F8013B03E010F8016BCC
:1002600001F8016B521EF9D1ABB110F8012B04F06B
:100270000C048A1A0C2C03D0A2EB84129B1C08E0FD
:1002800010F8014BA2EB0422F8E712F8014B01F839
:10029000014B5B1EF9D5A942D4D3002070BD00BF2D
:1002A000FEE770B50446002500F094FC064694F87D
:1002B0002100022808D08020206400BF002084F89C
:1002C000200000BF012070BD2068006820F00E00F3
:1002D000216808602068006820F00100216808603B
:1002E00094F8481001208840616C4860012084F82F
:1002F000210000BF002084F8200000BF00BFE2E71B
:10030000014691F82100022803D0802008640120D2
:100310007047052081F821000868006820F001007E
:100320000A6810600020F3E7014691F82100704749
:10033000F8B5044600200090604800684FF416515C
:10034000B0FBF1F6606C056894F84810082088400E
:100350002840A0B120680068C0F3C00078B12068D0
:10036000006820F008002168086094F84810082010
:100370008840616C4860206C40F00100206494F873
:100380004810042088402840D0B120680068C0F39D
:100390008000A8B194F8481004208840616C48603F
:1003A0002068006800F0200028B92068006820F06C
:1003B000040021680860E06A10B12046E16A8847BD
:1003C00094F84810022088402840002849D020682E
:1003D0000068C0F34000002843D094F84810022081
:1003E0008840616C486094F82100052821D120687C
:1003F000006820F00A0021680860E06A28B12068DF
:10040000006820F004002168086094F8481001207A
:100410008840616C4860012084F8210000BF002002
:1004200084F8200000BFE06B10B12046E16B8847E4
:10043000F8BD2068006800F0200068B920680068F6
:1004400020F0020021680860012084F8210000BF2C
:10045000002084F8200000BFA06A10B12046A16AE5
:100460008847206C38B3206C00F00100F0B1052003
:1004700084F821002068006820F0010021680860ED
:1004800000BF0098401C0090B04200D905E02068F1
:10049000006800F001000028F3D100BF012084F8BB
:1004A000210000BF002084F8200000BFA06B10B125
:1004B0002046A16B884700BFBAE70000000000207B
:1004C0002DE9F0410446002500F084FB0646002794
:1004D00014B90120BDE8F0811E49206888420BD282
:1004E0001D492068401A1421B0FBF1F08000A0647F
:1004F0001948083860640AE016492068401A142137
:10050000B0FBF1F08000A06412480838606402205B
:1005100084F821002068056843F6F0708543D4E92B
:1005200001010843E1680843216908436169084300
:10053000A1690843E169084305432068056000BFDD
:10054000002084F8200000BF2064012084F82100EE
:100550000020BFE708040240080002402DE9F047F0
:1005600004460D4616461F464FF00009C84600BF18
:1005700094F82000012802D10220BDE8F087012074
:1005800084F8200000BF94F82100012825D1022022
:1005900084F82100002020643B463246294620464C
:1005A00002F06CFB94F8481001208840616C4860B0
:1005B0002068006840F00A0021680860E06A28B1FD
:1005C0002068006840F00400216808602068006826
:1005D00040F001002168086006E000BF002084F8B8
:1005E000200000BF4FF002084046C6E770B5044641
:1005F00000F0F0FA06462546681C10B10448007861
:10060000054400BF00F0E6FA801BA842FAD370BD93
:100610000C00002010B500F021FF00F065FF02F093
:100620005FF801F0A1FB00F0D9F800F0D9FA01F071
:100630009DFB01F0BDFB10BD2DE9F04104460E46C7
:100640000127002500BF2548007E012802D1022095
:10065000BDE8F08101202149087600BF4CF25030FE
:1006600002F0D2FB074697BB4FF0FF3030602068A6
:1006700001280ED1606802F057FB4CF2503002F0B6
:10068000C3FB07461648006920F0040014490861BE
:100690001BE0A56812E0284602F05AFB4CF25030ED
:1006A00002F0B2FB07460E48006920F002000C4938
:1006B00008610FB1356007E005F58065D4E90210E7
:1006C00001EB8020A842E6D800BF02F0F1FA00BF9B
:1006D00000200249087600BF3846B9E7F00600203E
:1006E000002002400348006940F080000149086191
:1006F00000207047002002402DE9FE4F05468A4643
:10070000174698464FF0010B00BF2648007E01288F
:1007100002D10220BDE8FE8F01202249087600BFE9
:100720004CF2503002F070FB8346BBF1000F31D128
:10073000002400200290012D02D10120029006E049
:10074000022D02D10220029001E004200290002438
:100750001CE022013E46C14630464946FFF712FDE5
:1007600080B20190022000FB04A00090019902F0E9
:1007700003FB4CF2503002F047FB83460A48006905
:1007800020F0010008490861601CC4B2029884424C
:10079000DFDB00BF00BF00200249087600BF5846DB
:1007A000B8E70000F00600200020024000200849C1
:1007B000096901F0800151B10649054A51600649B5
:1007C00051601146096901F0800101B101207047B3
:1007D0000020024023016745AB89EFCD00B585B00D
:1007E0000020019002900390049000BF00904C48BC
:1007F000806940F004004A4988610846806900F039
:100800000400009000BF00BF012001900290002072
:1008100003900320049001A9424800F08BF80122C4
:100820001146404800F0D0F9002201213D4800F077
:10083000CBF90220019001200290002003900320B8
:10084000049001A9374800F075F8012202213548CB
:1008500000F0BAF900220221324800F0B5F900BFD9
:10086000002000902E48806940F020002C498861CB
:100870000846806900F02000009000BF00BF0420FF
:10088000019001200290002003900320049001A910
:10089000254800F04FF801225102244800F094F955
:1008A00000224FF40071214800F08EF9012211025C
:1008B0001E4800F089F900224FF480711B4800F0B7
:1008C00083F901222021194800F07EF9002220211D
:1008D000164800F079F900BF0020009010488069A8
:1008E00040F010000E4988610846806900F0100051
:1008F000009000BF00BF40F6FF7001900120029001
:10090000002003900320049001A9094800F012F888
:10091000012240F6FF71064800F056F905B000BD0F
:10092000001002400008014000140140000C01408A
:10093000001001402DE9F841044600250022002066
:1009400000232EE14FF0010C0CFA03F5D1F800C0A2
:100950000CEA0502AA427DD1D1F804C0BCF5881F7B
:100960003BD014DCBCF1030F34D009DCBCF1000F28
:1009700032D0BCF1010F1CD0BCF1020F44D11FE0FA
:10098000BCF1110F17D0BCF1120F3DD11DE0BCF529
:10099000081F26D006DCBCF5901F21D0BCF5041F33
:1009A00032D11BE0BCF5441F19D0BCF5481F2BD138
:1009B00018E0C86829E0D1F80CC00CF1040024E06C
:1009C000D1F80CC00CF108001FE0D1F80CC00CF1FC
:1009D0000C001AE0002018E000BF00BF00BF00BFFD
:1009E00000BF00BFD1F808C0BCF1000F01D1042046
:1009F00009E0D1F808C0BCF1010F02D1082025613F
:100A000001E00820656100E000BF00BFFF2A01D8B7
:100A1000A44601E004F1040C6646FF2A02D84FEA1E
:100A2000830C03E0A3F1080C4FEA8C0C6746D6F860
:100A300000C04FF00F0808FA07F82CEA080C00FA7B
:100A400007F84CEA080CC6F800C0D1F804C00CF452
:100A5000403C00E07FE0BCF1000F7CD000BF4FF0D5
:100A6000000CCDF800C0DFF844C1DCF818C04CF031
:100A7000010CDFF83881C8F818C0C446DCF818C08B
:100A80000CF0010CCDF800C000BF00BF4FEAB83C2D
:100A90004FEA93085CF828004FEA837C4FEA1C7801
:100AA0004FF00F0C0CFA08FC20EA0C00DFF800C134
:100AB000644502D14FF0000C16E0DFF8F8C0644541
:100AC00002D14FF0010C0FE0DFF8ECC0644502D119
:100AD0004FF0020C08E0DFF8E4C0644502D14FF0AB
:100AE000030C01E04FF0040C4FEA83784FEA1878CA
:100AF0000CFA08FC4CEA0000DFF8C4C04FEA930887
:100B00004CF82800DFF8BCC0DCF800009043D1F8B6
:100B100004C00CF4801CBCF1000F00D01043DFF8BF
:100B2000A4C0CCF800000CF1040CDCF800009043E9
:100B3000D1F804C00CF4001CBCF1000F00D010432D
:100B4000DFF880C00CF1040CCCF80000DFF874C0B2
:100B5000ACF1040C00E023E0DCF800009043D1F895
:100B600004C00CF4003CBCF1000F00D01043DFF8CF
:100B700054C0ACF1040CCCF80000ACF1040CDCF86F
:100B800000009043D1F804C00CF4803CBCF1000F8D
:100B900000D01043DFF82CC0ACF1080CCCF80000FA
:100BA0005B1C102BFFF4CEAEBDE8F88100100240B4
:100BB00000080140000C01400010014000140140F9
:100BC00008000140080401400AB1016101E00B0482
:100BD000036170470148006870470000040000206E
:100BE00010B50D480D4908600D4848604FF480412C
:100BF0000A488160A021C160FE2181614FF48041DB
:100C0000016100214161C161016200F07FF908B119
:100C100002F04BF810BD0000005400408009002095
:100C200040420F00704770472DE9F84F0446206896
:100C300047692068D0F80480002594F83E90C7F3F7
:100C4000002040B1C8F3002028B145F001056FF441
:100C5000807021684861C7F3402040B1C8F300208C
:100C600028B145F002056FF4007021684861C7F3B0
:100C7000802070B3C8F3002058B3CA46B4F82AB035
:100C800094F83D60206B0090BAF1200F0FD1BBF1BA
:100C9000000F0CD1212E06D0292E04D0282E06D1EB
:100CA0000098212803D1204603F052F811E06FF498
:100CB00080602168486145F00405B9F1100F02D049
:100CC000B9F1400F05D12068006840F40070216838
:100CD0000860C7F3C02040B1C8F3002028B145F038
:100CE00008056FF40060216848612DB1206C28432D
:100CF0002064204602F0C4FABDE8F88F2DE9F047E1
:100D000005464FF0000928684668D5F82CA095F8EC
:100D10003E7095F83D80102F01D0402F75D1286886
:100D2000D0F818902868446904F0010060B9BAF559
:100D30002A0F02D0BAF12A4F01D1012000E0002091
:100D4000012801D1BDE8F08704F0010048B1C6F3E5
:100D5000402030B1284602F0FFF9284602F087FE15
:100D6000B7E0C4F3C00030B1C6F3402018B1284644
:100D700002F034FDADE0C4F3400030B1C6F34020D2
:100D800018B1284602F03FFDA3E0C9F3800040B34C
:100D90002868406800F40060B0F5006FE0D0C4F34C
:100DA000C01048B1C6F3802030B1C4F3800018B938
:100DB000284602F0A7FC8CE0C4F380000028CFD0C6
:100DC000C6F340200028CBD0B8F1210F03D128462C
:100DD00002F048FC7DE0402F7BD1284602F096FED1
:100DE00077E02868406800F40060B0F5006F70D0CC
:100DF000C4F3801050B1C6F3802038B1C4F3800032
:100E000020B9284602F0ACFB63E00BE0C4F380009D
:100E100000285ED0C6F3402000285AD0284602F0B1
:100E200005FB56E0286C10B12868446904E0286886
:100E3000D0F8189028684469C4F3400060B1C6F344
:100E4000402048B1286C10B12868D0F81890494665
:100E5000284602F045FF3CE0C4F3001030B1C6F371
:100E6000402018B1284602F0C7FF32E0B8F1210F48
:100E700002D0B8F1290F16D1C4F3C01048B1C6F39F
:100E8000802030B1C4F3800018B9284602F005FF75
:100E90001FE0C4F38000E0B1C6F34020C8B128468B
:100EA00002F0EEFE15E0C4F3801048B1C6F38020D6
:100EB00030B1C4F3800018B9284602F0BEFE08E045
:100EC000C4F3800028B1C6F3402010B1284602F0D8
:100ED000A7FE00BF36E7000010B5044607492068AA
:100EE000884200D010BD206C0549086002220549E7
:100EF000054800F00FFA00BFF4E70000005400407E
:100F0000E8060020200000208009002070B504467B
:100F10000CB9012070BD94F83D0028B9002084F878
:100F20003C00204600F0E0F8242084F83D002068D2
:100F3000006820F00100216808602068006840F423
:100F40000040216808602068006820F400402168A3
:100F5000086000F0ABFC05465C496068884206D832
:100F60005B48854201D2012007E0002005E0594896
:100F7000854201D2012000E00020012800D1C9E70C
:100F80005548B5FBF0F62068406820F03F0030433C
:100F9000216848604D496068884201D8701C07E0AC
:100FA0004FF4967070434FF47A71B0FBF1F0401C2F
:100FB0002168096A21F03F0108432168086243491A
:100FC0006068884214D8681E61684900B0FBF1F07F
:100FD000401CC0F30B00042801D204203DE0681E31
:100FE00061684900B0FBF1F0401CC0F30B0034E035
:100FF000A06838B9681E616801EB4101B0FBF1F0EF
:10100000401C0AE0681E616801EBC10202EB01119D
:10101000B0FBF1F0401C40F48040C0F30B0008B975
:1010200001201AE0A06848B9681E616801EB41011F
:10103000B0FBF1F0401CC0F30B000CE0681E6168CF
:1010400001EBC10202EB0111B0FBF1F0401CC0F357
:101050000B0040F4804040F400402168C9694CF620
:10106000FF72914308432168C861D4E9070108432E
:101070002168096821F0C001084321680860D4E9AB
:10108000031008432168896848F2FF3291430843FE
:1010900021688860D4E9050108432168C96821F006
:1010A000FF0108432168C8602068006840F0010023
:1010B0002168086000202064202084F83D00002082
:1010C000206384F83E0000BF24E70000A0860100F2
:1010D00080841E0000093D0040420F0070477047A9
:1010E000704770477047000010B586B00446002076
:1010F00002900390049005905149206888427DD168
:1011000000BF002001904F48C06940F400104D49D5
:10111000C8610846C06900F40010019000BF00BF1C
:1011200000BF002001900846806940F008008861F7
:101130000846806900F00800019000BF00BF00BFB2
:101140004149486840F0E06040F00200486000BF5C
:1011500000BF002001903B48406940F00100394940
:1011600048610846406900F00100019000BF00BFDF
:101170004FF440700290122003900120049003204D
:10118000059002A93148FFF7D5FB31483149086085
:101190001020486000212F4881608021C16000211B
:1011A0000161416181614FF40051C161FFF788F92C
:1011B00008B101F07AFD2648143027490860002064
:1011C00048600021244881608021C16000210161C4
:1011D000416181614FF40051C161FFF771F908B1BC
:1011E00001F063FD00BF1B486063446200BF00BFA5
:1011F0001948A063446200BF002200E01EE0012104
:101200001F2000F0ABF91F2000F094F901221146D5
:10121000202000F0A3F9202000F08CF90022022108
:10122000102000F09BF9102000F084F90022022128
:10123000112000F093F9112000F07CF906B010BDE8
:10124000005400400010024000000140000C01402A
:101250006C000240D4090020200A002070B504462A
:1012600018492068884200D070BD1748007855287A
:101270000ED115484078AA280AD1012013490870D8
:1012800002F0A8FC2A221249124800F08FF816E05A
:101290000D48007855280DD10B484078AB2809D16E
:1012A0000D480E4D2ECD2EC002220749094800F0F0
:1012B00031F804E002220449064800F02BF800BF90
:1012C000D2E700000054004020000020240000204D
:1012D000980B002080090020D40C0020C40C0020B2
:1012E00010B5044607492068884200D010BD002090
:1012F0000549087002220549054800F00BF800BFB7
:10130000F4E70000005400402400002020000020EA
:101310008009002010B5034693F83D00202840D1F5
:1013200001B10AB9012010BD00BF93F83C000128AB
:1013300001D10220F7E7012083F83C0000BF1868C4
:10134000006800F0010028B91868006840F001004A
:101350001C6820601868006820F400601C68206029
:10136000222083F83D00202083F83E0000201864EE
:1013700059625A85588D18850B48D86218680068DC
:1013800040F480601C68206000BF002083F83C00AF
:1013900000BF1868406840F4E0601C68606000208E
:1013A000C1E70220BFE700000000FFFF10B50346C1
:1013B00093F83D00202840D101B10AB9012010BDA9
:1013C00000BF93F83C00012801D10220F7E701207B
:1013D00083F83C0000BF1868006800F0010028B9DD
:1013E0001868006840F001001C68206018680068F8
:1013F00020F400601C682060212083F83D0020203C
:1014000083F83E000020186459625A85588D18856B
:101410000B48D8621868006840F480601C6820603F
:1014200000BF002083F83C0000BF1868406840F40B
:10143000E0601C6860600020C1E70220BFE7000098
:101440000000FFFF03480068034909780844014988
:1014500008607047040000200C00002010B50D4803
:10146000006840F480700B4908600846006840F44A
:10147000007008600846006840F010000860032013
:1014800000F0AAF80F2000F007F800F02BF8002079
:1014900010BD00000020024070B504460E480078E0
:1014A0004FF47A71B1FBF0F00C490968B1FBF0F52B
:1014B000284601F0FBF808B1012070BD102C07D2BE
:1014C00000222146501E00F049F80548046001E062
:1014D0000120F2E70020F0E70C00002000000020CF
:1014E000080000207047000008B500BF00200090F1
:1014F0000F48806940F001000D4988610846806905
:1015000000F00100009000BF00BF00BF002000906D
:101510000846C06940F08050C8610846C06900F0C4
:101520008050009000BF00BF032000F055F808BDB8
:10153000001002400146084600280DDB00BF00BF36
:1015400000F01F0301229A4043099B0003F1E023AE
:10155000C3F8002100BF00BF00BF70472DE9F05F56
:1015600080460D461646002703F0ACFB0746394679
:101570002A46334601F00700C0F1070ABAF1040F0A
:1015800002D94FF0040A01E0C0F1070AD14600F188
:10159000040ABAF1070F02D24FF0000A01E0A0F1ED
:1015A000030AD4464FF0010A0AFA09FAAAF1010A1D
:1015B0000AEA020A0AFA0CFA4FF0010B0BFA0CFBCA
:1015C000ABF1010B0BEA030B4AEA0B042146404640
:1015D00003F080FBBDE8F09F00BF00F00702064B60
:1015E00019684FF6FF031940044B0B4343EA0221ED
:1015F000014B196000BF70470CED00E00000FA05D8
:10160000F8B5044600260025207800F002000228E4
:101610005AD100BF002000903948C06940F0805086
:101620003749C8610846C06900F08050009000BF8B
:1016300000BF3448006840F4807032490860FFF70A
:10164000C9FA064606E0FFF7C5FA801B022801D951
:101650000320F8BD2B48006800F480700028F2D009
:101660002748006A00F4407535B3A08800F4407044
:10167000A84221D02248006A20F440750120224966
:101680000860002008601E480562006A00F0010042
:1016900090B1FFF79FFA064608E0FFF79BFA801B20
:1016A00041F28831884201D90320D2E71448006A08
:1016B000C0F340000028F0D01148006A20F44070C8
:1016C000616808430E490862207800F00800082885
:1016D00007D10B48406820F44040A16808430849FE
:1016E0004860207800F01000102807D104484068B6
:1016F00020F4400021690843014948600020A8E720
:1017000000100240007000404004424270B50446A0
:101710000D460CB9012070BD5C48006800F0C700A0
:10172000A8420ED25948006820F0C7002843574904
:1017300008600846006800F0C700A84201D00120F8
:10174000E9E7207800F0020002281DD1207800F09F
:101750000400042805D14E48406840F4E0604C493C
:101760004860207800F00800082805D14848406803
:1017700040F46050464948604548406820F0F00019
:10178000A168084342494860207800F0010090B306
:101790006068012806D13E480068C0F34040A8B9FF
:1017A0000120B8E76068022802D06068032806D1EB
:1017B00037480068C0F3406040B90120ABE73448C7
:1017C0000068C0F3400008B90120A4E73048406831
:1017D00020F00300616808432D494860FFF7FAF9DB
:1017E000064609E0FFF7F6F9801B41F2883188428E
:1017F00002D903208FE707E02548406800F00C007D
:101800006168B0EB810FEDD12048006800F0C7009F
:10181000A8420ED91D48006820F0C70028431B4984
:1018200008600846006800F0C700A84201D0012007
:1018300071E7207800F00400042807D114484068BC
:1018400020F4E060E168084311494860207800F026
:101850000800082808D10E48406820F4605021692B
:1018600040EAC1000A49486000F030F80849496878
:10187000C1F30311074A515CC84007490860074893
:101880000068FFF709FE002045E700000020024045
:1018900000100240F0560008000000200800002060
:1018A00001480068704700000000002000B5FFF705
:1018B000F7FF04494968C1F30221034A515CC8405B
:1018C00000BD000000100240005700080021002267
:1018D00000201A4B5B6803F00C0323B1042B04D0E7
:1018E000082B26D103E0164825E0164823E0134BC9
:1018F0005B68C3F383439B1C102B01D9102304E0C6
:101900000E4B5B68C3F383439B1C19460B4B5B6810
:1019100003F480334BB1094B5B68C3F340435A1C5B
:10192000084B4B43B3FBF2F002E0064B01FB03F024
:1019300001E0034800BF00BF7047000000100240F4
:101940000024F40000127A00F8B504460CB9012016
:10195000F8BD207800F0010000286AD0FD484068FA
:1019600000F00C0004280CD0FA48406800F00C008D
:10197000082811D1F748406800F48030B0F5803F66
:101980000AD1F4480068C0F34040002851D0606894
:1019900000284ED10120DBE700BF6068B0F5803F32
:1019A00006D1EC48006840F48030EA4908601AE04B
:1019B0006068B0F5A02F0BD1E648006840F48020A5
:1019C000E44908600846006840F4803008600AE096
:1019D000E048006820F48030DE490860084600686E
:1019E00020F48020086000BF606888B1FFF7F2F83B
:1019F000054606E0FFF7EEF8401B642801D90320F6
:101A0000A6E7D4480068C0F340400028F2D010E0B8
:101A1000FFF7E0F8054606E0FFF7DCF8401B642816
:101A200001D9032094E7CB480068C0F34040002868
:101A3000F2D1207800F00200022857D1C548406852
:101A400000F00C0050B1C348406800F00C000828BA
:101A500018D1C048406800F4803098B9BD4800688B
:101A6000C0F3400020B12069012801D001206FE7B8
:101A7000B848006820F0F800616940EAC100B54943
:101A8000086033E02069E8B10120B3490860FFF73E
:101A9000A1F8054606E0FFF79DF8401B022801D992
:101AA000032055E7AB480068C0F340000028F2D09F
:101AB000A848006820F0F800616940EAC100A54923
:101AC000086013E00020A4490860FFF783F805468A
:101AD00006E0FFF77FF8401B022801D9032037E713
:101AE0009C480068C0F340000028F2D1207800F044
:101AF000080008282AD1A069A0B1012097490860F0
:101B0000FFF768F8054606E0FFF764F8401B022877
:101B100001D903201CE78F48406AC0F34000002829
:101B2000F2D013E000208D490860FFF753F8054616
:101B300006E0FFF74FF8401B022801D9032007E712
:101B40008448406AC0F340000028F2D1207800F0B9
:101B50000400042872D100277E48C06900F080503C
:101B600080B900BF002000907A48C06940F08050E2
:101B70007849C8610846C06900F08050009000BFF5
:101B800000BF01277648006800F48070B0B974483F
:101B9000006840F4807072490860FFF71BF8054642
:101BA00006E0FFF717F8401B022801D90320CFE613
:101BB0006B48006800F480700028F2D000BFE06835
:101BC000012806D16348006A40F0010061490862BB
:101BD00019E0E06805280BD15E48006A40F0040077
:101BE0005C4908620846006A40F0010008620AE0A9
:101BF0005848006A20F00100564908620846006A09
:101C000020F00400086200BFE06898B1FEF7E2FF30
:101C1000054608E0FEF7DEFF401B41F288318842AE
:101C200001D9032094E64B48006AC0F34000002825
:101C3000F0D013E0FEF7CEFF054609E017E0FEF70F
:101C4000C9FF401B41F28831884201D903207FE659
:101C50004048006AC0F340000028F0D1012F05D1B0
:101C60003C48C06920F080503A49C86100BFE06933
:101C7000C8B33848406800F00C00082857D0E06925
:101C800002283FD1002034490866FEF7A3FF05462D
:101C900006E0FEF79FFF401B022801D9032057E60C
:101CA0002C480068C0F340600028F2D1206AB0F5EB
:101CB000803F07D12748406820F40030A1680843DE
:101CC00024494860D4E9080108432249496821F4BD
:101CD000741108431F49486001201F490866FEF738
:101CE00079FF054607E03DE0FEF774FF401B022840
:101CF00001D903202CE617480068C0F34060002893
:101D0000F2D02FE0002014490866FEF763FF054675
:101D100006E0FEF75FFF401B022801D9032017E60B
:101D20000C480068C0F340600028F2D11AE0E06976
:101D3000012800D10CE60748466806F48031206A85
:101D4000814204D106F47011606A81420AD00120F8
:101D5000FEE50000001002400000424280044242C2
:101D6000007000400020F3E57047000010B50E48F9
:101D70000E4908604FF48270486000210B48816072
:101D8000C160016141614FF4007181612021C16135
:101D90000021016241628162C16200F02BF808B14A
:101DA00000F083FF10BD000000300140D00800208B
:101DB00010B50E480E4908604FF48270486000214B
:101DC0000B488160C160016141614FF40071816124
:101DD0002821C1610021016241628162C16200F07B
:101DE00009F808B100F061FF10BD000000380040A4
:101DF0002809002010B504460CB9012010BD606A06
:101E000030B96068B0F5827F00D101E00021E16166
:101E1000A06AB0F5005F00D100BF94F8510028B966
:101E2000002084F85000204600F04AF8022084F890
:101E300051002068006820F0400021680860A088F8
:101E400000F48270218901F404410843A18901F45E
:101E500000610843217C01F002010843217D01F06B
:101E600001010843218B01F400710843217F01F037
:101E7000380108432021095D01F080010843218DCC
:101E800001F400510843216808600421A06901EAB7
:101E9000104021684860A06AB0F5005F03D1A08DB2
:101EA00080B2216808612068C06920F40060216860
:101EB000C86100206065012084F8510000209DE782
:101EC00010B586B00446002002900390049005905F
:101ED00034492068884233D100BF00200190324845
:101EE000806940F48050304988610846806900F478
:101EF0008050019000BF00BF00BF00200190084645
:101F0000806940F0040088610846806900F00400A0
:101F1000019000BF00BFE02002900220039000204B
:101F200004900320059002A92048FEF703FD00BF9E
:101F30001F49486840F0E06020F00100486000BFA1
:101F40001C49206888422BD100BF00200190164810
:101F5000C06940F480401449C8610846C06900F473
:101F60008040019000BF00BF00BF002001900846E4
:101F7000806940F0080088610846806900F0080028
:101F8000019000BF00BF4FF4604002900220039018
:101F9000002004900320059002A90748FEF7CAFC20
:101FA00006B010BD003001400010024000080140A2
:101FB0000000014000380040000C01402DE9FC47C2
:101FC0000446884617461D460020019081466068F9
:101FD000B0F5827F0DD1A06858B9042084F8510073
:101FE0003B46424641462046009500F0F6F9BDE8E2
:101FF000FC8700BF94F85000012801D10220F6E7C9
:10200000012084F8500000BFFEF7E4FD064694F876
:102010005100012802D04FF00209E1E0B8F1000FB1
:1020200000D017B94FF00109DAE0042084F851001C
:1020300000206065C4F83880A787E7872063A08602
:10204000E08620646064A06AB0F5005F10D100BF34
:102050002068006820F4005021680860206800684B
:1020600040F400502168086000BFE08F401EE08708
:10207000A068B0F5004F0BD12068006820F0400048
:10208000216808602068006820F4804021680860AA
:102090002068006800F04000402805D020680068F3
:1020A00040F0400021680860E068F8B91AE0206854
:1020B000806800F0010050B12068007BA16B0870BF
:1020C000A06B401CA063E08F401EE0870AE0FEF793
:1020D00081FD801BA84201D3681C00B915B94FF0DF
:1020E00003097DE0E08F0028E1D11EE01AE02068BE
:1020F000806800F0010050B12068C068A16B0880C2
:10210000A06B801CA063E08F401EE0870AE0FEF712
:1021100061FD801BA84201D3681C00B915B94FF0BE
:1021200003095DE0E08F0028E1D1A06AB0F5005F0F
:102130003BD12068006840F4805021680860206826
:10214000006800F4805028B12068006820F48050B6
:10215000216808602B46012211462046009602F0B5
:1021600013FA10B14FF003093AE0E068B0F5006FE0
:1021700004D12068C068A16B088003E02068007B60
:10218000A16B08702B46012211462046009602F0F2
:10219000FBF930B1606D40F0020060654FF003095B
:1021A0001EE02068C068019000BF324629462046E4
:1021B00002F06AF908B1202060652068806800F0AC
:1021C0001000102807D1606D40F0020060654FF6E6
:1021D000EF7021688860606D08B14FF0010900BFA1
:1021E000012084F8510000BF002084F8500000BF97
:1021F0004846FCE62DE9F84F0446884616461D463B
:102200004FF0000A00BF94F85000012802D10220CC
:10221000BDE8F88F012084F8500000BFFEF7DAFC1B
:102220000746B14694F85100012802D04FF0020A47
:10223000C9E0B8F1000F00D016B94FF0010AC2E0B2
:10224000032084F8510000206065C4F83080A68621
:10225000E686A063A087E08760642064A068B0F58C
:10226000004F0BD12068006820F040002168086012
:102270002068006840F4804021680860A06AB0F5DA
:10228000005F0DD100BF2068006820F40050216875
:1022900008602068006840F400502168086000BFB2
:1022A0002068006800F04000402805D020680068E1
:1022B00040F0400021680860E068B0F5006F2FD161
:1022C000606810B1B9F1010F09D1206B0088216855
:1022D000C860206B801C2063E08E401EE0861BE0FF
:1022E0002068806800F0020002280AD1206B008874
:1022F0002168C860206B801C2063E08E401EE08651
:102300000AE0FEF767FCC01BA84201D3681C00B9B5
:1023100015B94FF0030A56E0E08E0028E0D12EE018
:10232000606810B1B9F1010F09D1206B0078216804
:102330000873206B401C2063E08E401EE0861BE08B
:102340002068806800F0020002280AD1206B007823
:1023500021680873206B401C2063E08E401EE086DD
:102360000AE0FEF737FCC01BA84201D3681C00B985
:1023700015B94FF0030A26E0E08E0028E0D1A06AEC
:10238000B0F5005F05D12068006840F480502168F6
:1023900008603A462946204602F0C0F808B12020DD
:1023A0006065A06850B900BF002000902068C06838
:1023B000009020688068009000BF00BF606D08B189
:1023C0004FF0010A00BF012084F8510000BF002037
:1023D00084F8500000BF50461AE72DE9F04F85B051
:1023E0000446884691461D460E9E0020039001201B
:1023F00002900020019000BF94F85000012803D102
:10240000022005B0BDE8F08F012084F8500000BF25
:10241000FEF7E0FB074694F851B060680490AA46C6
:10242000BBF1010F0BD00498B0F5827F04D1A068F6
:1024300010B9BBF1040F02D0022001902CE1B8F1D9
:10244000000F03D0B9F1000F00D015B901200190A1
:1024500022E194F85100042802D0052084F85100AC
:1024600000206065C4F83890E587A587C4F83080FF
:10247000E586A58620646064A06AB0F5005F0DD192
:1024800000BF2068006820F40050216808602068C0
:10249000006840F400502168086000BF20680068B0
:1024A00000F04000402805D02068006840F040005F
:1024B00021680860E068B0F5006F56D1606810B11F
:1024C000BAF1010F09D1206B00882168C860206B28
:1024D000801C2063E08E401EE0863FE0206880681C
:1024E00000F0020002281CD1E08ED0B10298012831
:1024F00017D1206B00882168C860206B801C206386
:10250000E08E401EE08600200290E08E48B9A06A6E
:10251000B0F5005F05D12068006840F48050216864
:1025200008602068806800F0010068B1E08F58B151
:102530002068C068A16B0880A06B801CA063E08F3E
:10254000401EE08701200290FEF744FBC01BB04212
:1025500004D3701C10B1032001909DE0E08E002890
:10256000BCD1E08F0028B9D156E0606810B1BAF153
:10257000010F09D1206B007821680873206B401C83
:102580002063E08E401EE08640E02068806800F016
:10259000020002281CD1E08ED0B10298012817D188
:1025A000206B007821680873206B401C2063E08E4C
:1025B000401EE08600200290E08E48B9A06AB0F587
:1025C000005F05D12068006840F4805021680860F1
:1025D0002068806800F0010068B1E08F58B1206881
:1025E000C068A16B0870A06B401CA063E08F401E08
:1025F000E08701200290FEF7EDFAC01BB04201D344
:10260000701C00B916B90320019045E0E08E002847
:10261000BBD1E08F0028B8D1A06AB0F5005F12D11D
:102620003346012211462046009701F0ADFF30B13C
:10263000606D40F002006065032001902CE020688E
:10264000C068039000BF2068806800F01000102868
:1026500009D1606D40F0020060654FF6EF702168AF
:102660008860012001903A463146204601F056FF2D
:1026700020B101200190202060650DE0A06850B9D4
:1026800000BF002000902068C0680090206880682B
:10269000009000BF00BF00BF012084F8510000BFC0
:1026A000002084F8500000BF0198AAE670B50446E7
:1026B0002546681EB0F1807F01D301200FE0681E1F
:1026C0004FF0E02148610F214FF0FF3002F002FB94
:1026D00000204FF0E021886107200861002070BDD4
:1026E00000B595B0142110A8FDF779FD282106A8A2
:1026F000FDF775FD142101A8FDF771FD012006907D
:10270000000407900020089002200D90C1030E9154
:102710004FF4A0110F9106A8FFF716F908B100F0C9
:10272000C4FA0F20109002201190002012901390F4
:102730001490032110A8FEF7E9FF08B100F0B5FAE4
:10274000082001900003039001A8FEF759FF08B18B
:1027500000F0ABFA15B000BDF8B504460E461746BA
:1027600094F84200202838D106B10FB90120F8BDF5
:1027700000BF94F84000012801D10220F7E70120B2
:1027800084F8400000BF2063002060633A46314671
:10279000204602F0A3F90546EDB9206B012819D1B6
:1027A00000BF00200090206800680090206840680A
:1027B000009000BF00BF00BF00BF21680C3151E88E
:1027C000001F41F0100021680C3141E80002002A8E
:1027D000F3D100E001252846C9E70220C7E770478A
:1027E00070B50446002520684069C0F3C01594F810
:1027F0004100212817D1B5B100BF00BF21681431B5
:1028000051E8001F21F080002168143141E80002E6
:10281000002AF3D100BFA06B10B1A06BFDF741FD02
:10282000204602F0C9F820684069C0F3801594F88A
:102830004200222817D1B5B100BF00BF2168143172
:1028400051E8001F21F040002168143141E80002E6
:10285000002AF3D100BFE06B10B1E06BFDF721FD62
:10286000204602F063F8002070BD70470146002248
:10287000002391F8412091F8423042EA030070476A
:102880002DE9F84F0446206805682068C66820686E
:1028900047694FF00009CA4605F00F09B9F1000F6A
:1028A0000AD105F0200038B106F0200020B1204602
:1028B00002F095F8BDE8F88FB9F1000F7CD007F071
:1028C000010018B906F49070002875D005F00100D9
:1028D00030B106F4807018B1606C40F001006064A3
:1028E00005F0040030B107F0010018B1606C40F051
:1028F0000200606405F0020030B107F0010018B179
:10290000606C40F00400606405F0080048B106F017
:10291000200010B907F0010018B1606C40F0080009
:102920006064606C002846D005F0200028B106F0F5
:10293000200010B1204602F052F820684069C0F330
:10294000801A606C00F0080010B9BAF1000F2DD0A9
:10295000204601F0EBFF2068406900F0400040286D
:1029600020D100BF00BF2168143151E8001F21F0C1
:1029700040002168143141E80002002AF3D100BF71
:10298000E06B50B17748E16BC863E06BFDF7B8FCD2
:1029900088B1E06BC16B88470DE02046FFF765FF0B
:1029A00009E009E02046FFF760FF04E02046FFF75A
:1029B0005CFF002060647DE7206B012877D105F083
:1029C0001000002873D006F010000028FAD000BFD5
:1029D0000020009020680068009020684068009007
:1029E00000BF00BF2068406900F0400040285FD170
:1029F000E06B006840681FFA80F8B8F1000F55D00E
:102A0000A08D404552DDA4F82E80E06B806920281F
:102A100043D000BF00BF21680C3151E8001F21F4F2
:102A2000807021680C3141E80002002AF3D100BF18
:102A300000BF00BF2168143151E8001F21F00100E0
:102A40002168143141E80002002AF3D100BF00BF21
:102A500000BF2168143151E8001F21F040002168B7
:102A6000143141E80002002AF3D100BF202084F88D
:102A700042000020206300BF00BF21680C3151E8F4
:102A8000001F21F0100021680C3141E80002002AEB
:102A9000F3D100BFE06BFDF704FC02206063A08D62
:102AA000E28D801A81B22046FFF799FE02E742E0EC
:102AB000A08DE18D401A1FFA80F8E08DD0B3B8F1F7
:102AC000000F37D000BF00BF21680C3151E8001F54
:102AD00021F4907021680C3141E80002002AF3D102
:102AE00000BF00BF00BF2168143151E8001F21F072
:102AF00001002168143141E80002002AF3D100BF2F
:102B0000202084F842000020206300BF00BF21681D
:102B10000C3151E8001F21F0100021680C3141E810
:102B20000002002AF3D100BF022060634146204624
:102B3000FFF755FEBEE605F0800030B106F08000DC
:102B400018B1204602F032F8B4E605F0400030B18A
:102B500006F0400018B1204601F01EFFAAE600BFB3
:102B6000A8E60000F1470008704770472DE9F84FCC
:102B700004460E46174699464FF0000A94F8410065
:102B8000202860D106B117B90120BDE8F88F00BF39
:102B900094F84000012801D10220F6E7012084F8D2
:102BA000400000BF00206064212084F84100FEF74F
:102BB00011F88246A784E784A068B0F5805F04D14D
:102BC000206910B90025B04602E035464FF00008F4
:102BD00000BF002084F8400000BF1EE053460022E2
:102BE00080212046CDF8009002F010F820B120207E
:102BF00084F841000320C8E745B9B8F80000C0F3E5
:102C000008002168486008F1020803E0287821687C
:102C100048606D1CE08C401EE084E08C0028DDD113
:102C20005346002240212046CDF8009001F0EEFFEF
:102C300020B1202084F841000320A6E7202084F85A
:102C400041000020A1E702209FE7704710B5064829
:102C5000FDF76EFB04480068006820F0010002499F
:102C60000968086010BD0000D409002010B50248B2
:102C7000FDF75EFB10BD0000200A002030B590F883
:102C800048500124AC40456C6C6004686360446843
:102C9000102C04D10468A2600468E16003E00468B9
:102CA000A1600468E26030BD704772B600BFFEE705
:102CB0001C48006800F48070B0B11A48006820F425
:102CC00080701849086000BF0846006840F48060C2
:102CD00008600846006820F48060086000BF08466D
:102CE000006840F4807008600E48006800F40070CE
:102CF000B0B10C48006820F400700A49086000BFB9
:102D00000846006840F4006008600846006820F447
:102D10000060086000BF0846006840F4007008606A
:102D200070470000002002400021074AD161074996
:102D3000096941F00401054A11611146096941F030
:102D40004001116170470000F006002000200240A1
:102D50000021074AD1610749096941F00201054A8A
:102D6000116111464861096941F0400111617047E4
:102D7000F0060020002002400022054BDA61054ADF
:102D8000126942F00102034B1A6101807047000092
:102D9000F0060020002002401948C06800F0100032
:102DA00050B11848C06940F010001649C86100BF12
:102DB00010201349C86000BF1148C06800F004002B
:102DC00050B11048C06940F040000E49C86100BFD2
:102DD00004200B49C86000BF0948C06900F0010029
:102DE00068B10848C06940F080000649C86100BF6A
:102DF0000348C06920F001000149C86100BF704765
:102E000000200240F006002070B504460025002096
:102E10001749C861FDF7DEFE054609E0601C38B1C0
:102E200024B1FDF7D7FE401BA04201D9032070BD9D
:102E30001048C06800F001000028EFD10D48C068BC
:102E400000F0200020B100BF20200A49C86000BF68
:102E50000848C06800F0140020B90648C06900F0B6
:102E6000010018B1FFF798FF0120E0E70020DEE73E
:102E7000F0060020002002400146880A80027047C8
:102E80002DE9F04104460D4616460D48844203D311
:102E9000A0190C49884203D94FF0FF30BDE8F081FA
:102EA00015B94FF0FF30F9E7002705E0204600F0A4
:102EB0000BF8E855641C7F1CB742F7D30020EDE700
:102EC00000480008005000080146087870472DE9C6
:102ED000F84F05460F4616464FF00008C146C24659
:102EE0000024A3460020009005F0030010B906F06E
:102EF000030018B14FF0FF30BDE8F88FC5F3090AA1
:102F0000CAF580644FEA9628C6F30909BAF1000FA2
:102F10002AD1B8F1000F09D132463946284600F0CF
:102F20007BF80090002874D00098E5E70DE04FF49E
:102F300080623946284600F06FF8009008B100988A
:102F4000DAE705F5806507F58067B8F10000A8F1BC
:102F50000108ECD14A463946284600F05DF8009059
:102F6000002856D00098C7E7B8F1000F20D1A1453E
:102F700015D9A9EB040B22463946284600F04CF837
:102F8000009008B10098B7E7254427445A463946CF
:102F9000284600F041F80090D0B30098ACE73246E4
:102FA0003946284600F038F8009088B30098A3E727
:102FB000361B4FEA9628C6F30909224639462846A9
:102FC00000F02AF8009008B1009895E725442744BE
:102FD0000DE04FF480623946284600F01DF800905D
:102FE00008B1009888E705F5806507F58067B8F1B6
:102FF0000000A8F10108ECD1B9F1000F09D04A4650
:103000003946284600F008F8009008B1009873E7A8
:10301000FFE7002070E700002DE9F04F87B005467C
:103020000E4617464FF0000A002400200690DFF8F5
:10303000F89005900190029003900490A80A4FEA3E
:103040008028C5F3090B3948854203D3E81938496C
:10305000884204D94FF0FF3007B0BDE8F08F16B9B1
:103060004FF0FF30F8E7FDF7A1FB002408E0281936
:10307000FFF72AFFFF2802D04FF0010A02E0641C8C
:10308000BC42F4D300BFBAF1010F35D14FF48062D6
:1030900025494046FFF7F4FE002405E0305D0BEBC8
:1030A0000401214A5054641CBC42F7D32846FFF760
:1030B000E3FE0390012004900020019006A901A8DE
:1030C000FDF7BAFA059008B10598C5E7002410E0AD
:1030D000D9F800C06246002341460220FDF70CFBF0
:1030E000059008B10598B7E708F1040809F104094B
:1030F000641CFF2CECD912E000240EE0D6F800C0CE
:103100006246002329460220FDF7F6FA059008B131
:103110000598A1E72D1D361D241DBC42EED3FDF7F9
:10312000E1FA002098E70000D80D002000480008D0
:103130000050000800BFFEE710B50248FDF774FD1F
:1031400010BD00008009002010B50248FDF7D6FD33
:1031500010BD000080090020C16AB1F52A0F02D11C
:103160000121C16205E0C16AB1F12A4F01D10821F4
:10317000C1627047F8B50546002000906C6A94F86B
:103180003D60394800681921B0FBF1F04FF47A71C5
:10319000B0FBF1F0C0EBC00000EB8000009000BF7E
:1031A000009820B9206C40F02000206409E00098CD
:1031B000401E00902068006800F40070B0F5007FA9
:1031C000EED000BF606B10B10020616B8862A06B15
:1031D00010B10020A16B88622068006820F4806034
:1031E0002168086000206085606B10B10020616B71
:1031F000C863A06B10B10020A16BC8632068006891
:1032000020F001002168086094F83D0060280AD190
:10321000202084F83D00002084F83E0020642046F1
:10322000FDF700FD1EE006F02800282811D12068D7
:10323000006840F00100216808602068006840F4E0
:1032400080602168086000202063282084F83D0009
:1032500005E0202084F83D00002084F83E00204650
:10326000FDF73AFEF8BD0000000000200168496942
:10327000C1F3C01111B10021026811617047000053
:103280002DE9F041044694F83D6094F83E70102F0B
:1032900001D0402F07D1222E05D12068006820F4EC
:1032A00000602168086006F02800282805D1002069
:1032B0002063282084F83D0010E02068406800F476
:1032C0000060B0F5006F07D0602E05D0202084F894
:1032D0003D00002084F83E00002020632068406804
:1032E00000F40060B0F5006F40D12068406820F421
:1032F000006021684860606B90F82100012814D0BC
:103300004848616BC863606BFCF7FAFF00285BD02C
:103310002068006820F0010021680860202084F8FF
:103320003D00606BC16B88474EE03E48A16BC863AF
:10333000A06BFCF7E5FF002846D020684069C0F389
:10334000801030B120680069616A0870606A401CB2
:1033500060622068006820F0010021680860202079
:1033600084F83D00A06BC16B88472DE094F83D00C8
:1033700060281AD1202084F83D00002020642068B5
:103380004069C0F3801030B120680069616A08703C
:10339000606A401C60622068006820F001002168BB
:1033A00008602046FDF73EFC0EE020684069C0F34F
:1033B000801030B120680069616A0870606A401C42
:1033C00060622046FDF788FD256C05F0010058B9C4
:1033D00005F00200022807D005F00400042803D0FD
:1033E00005F00800082805D12068406820F4E06056
:1033F0002168486094F83D60206C00F004000428C7
:103400000ED1282E0CD10848E06200202063202035
:1034100084F83D00002084F83E002046FDF75EFE63
:10342000BDE8F081753100080000FFFF70B504466B
:10343000E56A608D042810D12068406820F480601F
:103440002168486020680069616A0870606A401CF1
:103450006062608D401E608581E0608D03281AD116
:103460002068406820F4806021684860042D07D0FF
:10347000022D05D02068006820F480602168086073
:1034800020680069616A0870606A401C6062608D33
:10349000401E608563E0608D022856D1012D01D069
:1034A000102D06D12068006820F480602168086033
:1034B00012E0042D01D0022D06D12068006840F4EE
:1034C00080602168086007E0102D05D02068006842
:1034D00040F400702168086020680069616A087023
:1034E000606A401C6062608D401E608520680069D3
:1034F000616A0870606A401C6062608D401E608571
:103500002068406820F4407021684860202084F8DA
:103510003D0094F83E00402807D1002084F83E008A
:1035200020632046FDF7DDFD19E0002084F83E0011
:10353000082D01D0202D02D10020206301E01220AF
:1035400020632046FDF7CBFD09E020680069616A31
:103550000870606A401C6062608D401E608570BDAE
:1035600070B5044694F83D0022287AD1E66A658D4C
:10357000032D13D920680069616A0870606A401CD5
:103580006062608D401E6085608D032868D1206870
:10359000406820F480602168486061E0E06A0228A9
:1035A00058D0012D01D0002D54D1204600F0EAFC66
:1035B000A0BB2068006820F4806021680860206853
:1035C000406820F4E0602168486020680069616A12
:1035D0000870606A401C6062608D401E608520201B
:1035E00084F83D0094F83E00402807D1002084F87C
:1035F0003E0020632046FDF774FD31E0002084F892
:103600003E00082E01D0202E02D10020206301E0D0
:10361000122020632046FDF762FD21E0FFE72068CD
:10362000406820F4E0602168486020680069616AB1
:103630000870606A401C6062608D401E60852020BA
:1036400084F83D00002084F83E002046FDF744FC4D
:1036500006E006E02068406820F480602168486049
:1036600000BF70BD70B50446E56A94F83D0021289E
:1036700047D1608D50B1606A007821680861606A46
:10368000401C6062608D401E60853AE0082D16D0B7
:10369000202D14D015F5803F11D02068406820F40B
:1036A000E0602168486011202063002084F83E001B
:1036B000202084F83D002046FDF712FD21E020681F
:1036C000406820F4E060216848602068006840F4A9
:1036D00000702168086000202063202084F83D00ED
:1036E00094F83E00402806D1002084F83E00204691
:1036F000FDF7F8FC05E0002084F83E002046FDF7C9
:10370000EFFC70BD2DE9F041044694F83D5094F86B
:103710003E70E66A208DB0BB212D3CD1082E16D01C
:10372000202E14D016F5803F11D02068406820F478
:10373000E0602168486011202063002084F83E008A
:10374000202084F83D002046FDF7CAFC44E02068B4
:10375000406820F4E060216848602068006840F418
:1037600000702168086000202063202084F83D005C
:1037700094F83E00402807D1002084F83E002046FF
:10378000FDF7B0FC28E006E0002084F83E0020466B
:10379000FDF7A6FC20E0212D03D0402F1CD1222DC7
:1037A0001AD1608D30B92068406820F480602168AB
:1037B000486011E094F83E00402803D1204600F014
:1037C000A5F909E0606A007821680861606A401C18
:1037D0006062608D401E6085BDE8F081416CC9B2B9
:1037E00002681161416B11B1416B896A21B9816B2A
:1037F00041B1816B896A29B10168496841F400616E
:1038000002685160704738B590F83E20C16A036B7A
:1038100090F83D40222C73D1046D64B9402A0AD13E
:1038200000BF002400940468646900940468A469DB
:10383000009400BF1AE1046DC4B90469B4F5404FA7
:1038400014D100BF002400940468646900940468E3
:10385000A469009400BF00BF0468246844F4807425
:1038600005682C60046D641C0465FFE0448D8CB910
:1038700000BF002400940468646900940468A4698B
:10388000009400BF00BF0468246844F40074056815
:103890002C60DDE0448D012C72D111F5803F30D1D8
:1038A0000468246824F4806405682C6004686468F3
:1038B00004F40064B4F5006F10D10468246824F4A3
:1038C000806405682C6000BF00240094046864696B
:1038D00000940468A469009400BFB9E000BF00240C
:1038E00000940468646900940468A469009400BFAB
:1038F00000BF0468246844F4007405682C60A7E0E5
:10390000A9E0082923D0202921D0122B01D1012997
:103910001DD104290AD0022908D0102906D0046834
:10392000246824F4806405682C6005E00468246839
:1039300044F4806405682C6000BF0024009404688F
:10394000646900940468A469009400BF80E004687E
:10395000246824F4806405682C6000BF002400946F
:103960000468646900940468A469009400BF00BFFF
:103970000468246844F4007405682C6068E0FFE77C
:10398000448D022C3BD1042910D002290ED01029DD
:103990000CD00468246824F4806405682C600468F2
:1039A000246844F4006405682C6005E00468246819
:1039B00044F4806405682C600468646804F400645E
:1039C000B4F5006F10D111F5803F07D0012905D063
:1039D000082903D0102901D0202905D10468646882
:1039E00044F4805405686C6000BF002400940468AF
:1039F000646900940468A469009400BF28E0046826
:103A0000246844F4806405682C600468646804F4E5
:103A10000064B4F5006F10D111F5803F07D0012983
:103A200005D0082903D0102901D0202905D1046828
:103A3000646844F4805405686C6000BF00240094FE
:103A40000468646900940468A469009400BF00BF1E
:103A5000002404650AE000BF00240094046864693F
:103A600000940468A469009400BF00BF38BD90F8BA
:103A70003E1040290ED1016D29B9416C01F0FE01C3
:103A80000268116141E0416CC9B241F00101026874
:103A900011613AE00169B1F5804F20D190F83D10F5
:103AA000212905D1416C01F0FE010268116105E098
:103AB000416CC9B241F0010102681161416B11B161
:103AC000416B896A21B9816BF9B1816B896AE1B176
:103AD0000168496841F400610268516015E0016DB8
:103AE00041B9416C01F44071F02242EAE1110268EF
:103AF00011610AE0016D012907D1416C01F44071A7
:103B0000F12242EAE11102681161704770B5044682
:103B100094F83D50206D98B9E06C012807D1A06C55
:103B2000C0B221680861206D801C206550E0A06C47
:103B3000C0F3072021680861206D401C206547E024
:103B4000206D012807D1A06CC0B221680861206DEA
:103B5000401C20653CE0206D022836D1222D09D181
:103B60002068006840F4807021680860206D401C67
:103B700020652DE0608D60B1212D0AD1606A00784A
:103B800021680861606A401C6062608D401E60852B
:103B90001EE0608DE0B9212D1AD12068406820F424
:103BA000E060216848602068006840F40070216887
:103BB000086000202063202084F83D00002084F865
:103BC0003E002046FDF78EFA02E02046FFF74EFB4E
:103BD00070BD000010B50F488478642C00D9002413
:103BE00000200D490880002C09DD224609490B48B8
:103BF000FCF7DCFA0848008820440749088006489A
:103C0000008828B900200549087001200249088071
:103C100010BD0000980B002022000020F40C0020B2
:103C2000418D49B101680969426A1170416A491CB4
:103C30004162418D491E4185704770B5044694F834
:103C40003D50608DD8B120680069616A0870606A73
:103C5000401C6062608D401E6085608D78B92A2DA1
:103C60000DD12068406820F48060216848602220DF
:103C70002063282084F83D002046FDF7EFFA70BD50
:103C8000418D49B1416A097802681161416A491C54
:103C90004162418D491E4185704770B5044694F8D4
:103CA0003D50608DD8B1606A007821680861606A13
:103CB000401C6062608D401E6085608D78B9292D42
:103CC0000DD12068406820F4806021684860212080
:103CD0002063282084F83D002046FDF701FB70BDDD
:103CE000F8B504460D46002794F83D0000F0280082
:103CF00028281CD12068406820F480602168486032
:103D0000C5F3800000B90127C5F3C01010B9A08920
:103D100086B201E0208B86B200BF002084F83C0010
:103D200000BF324639462046FCF77DFF0FE000BF5A
:103D30000020009020684069009020688069009011
:103D400000BF00BF00BF002084F83C0000BFF8BDEA
:103D500070B5044694F83D50E66A082E01D0202E36
:103D60001FD1282D1DD12348E0622068406820F42F
:103D7000E060216848606FF48060216848612068D5
:103D8000006820F480602168086000202063202003
:103D900084F83D00002084F83E002046FDF79EF99F
:103DA00026E0212D20D11348E0622120206320202D
:103DB00084F83D00002084F83E002068406820F42C
:103DC000E060216848606FF4806021684861206885
:103DD000006820F48060216808602046FFF746FAFA
:103DE0002046FDF77DFA03E06FF4806021684861AA
:103DF00070BD00000000FFFF38B5044694F83D5048
:103E00002068406820F4E0602168486000BF00201E
:103E100000902068406900902068006840F0010030
:103E20002168086000BF00BF2068006820F480603F
:103E3000216808602068406800F40060B0F5006FF9
:103E400042D1222D01D02A2D1FD1A06B00684068DD
:103E50006085608D18B1206C40F0040020642068FB
:103E6000406820F4006021684860A06BFCF75CFAB1
:103E7000012829D04148A16BC863A06BFCF740FA28
:103E800010B3A06BC16B88471EE0606B0068406890
:103E90006085608D18B1206C40F0040020642068BB
:103EA000406820F4006021684860606BFCF73CFAD1
:103EB000012809D03148616BC863606BFCF720FAB8
:103EC00010B1606BC16B8847608D18B32068406982
:103ED000C0F3800048B120680069616A0870606AB8
:103EE000401C6062608D401E608520684069C0F3A0
:103EF000801048B120680069616A0870606A401CDF
:103F00006062608D401E6085608D18B1206C40F04D
:103F100004002064206C18B12046FFF7B1F92BE0B3
:103F20002A2D07D100202063282084F83D00204658
:103F3000FDF794F994F83D0028280DD11048E0626F
:103F400000202063202084F83D00002084F83E00FB
:103F50002046FDF7C3F80FE0206B222801D0222D68
:103F60000AD100202063202084F83D00002084F83E
:103F70003E002046FDF772F938BD0000753100089B
:103F80000000FFFF08B501460020009010480068BF
:103F90001922B0FBF2F04FF47A72B0FBF2F000EBB2
:103FA0008000009000BF0098401E0090009828B943
:103FB000086C40F020000864012008BD0868006813
:103FC00000F40070B0F5007FEDD00020F5E70000B0
:103FD0000000002000BFFEE7704700002DE9F04F11
:103FE0002DED048B83B04FF0000A00200190029069
:103FF0000025002480468346422229466D1CDD4868
:104000004254542229466D1C4254162229466D1CE6
:104010004254D948027829466D1CD6484254F422AD
:1040200029466D1C4254002229466D1C42542946E3
:104030006D1C42542846691CCDB2CE490A5428460C
:10404000691CCDB2CB490A54CC4802782846691C79
:10405000CDB2C8490A54C9480088C0F3072228468F
:10406000691CCDB2C3490A54C4480068C0F3074272
:104070002846691CCDB2BF490A54C0480068000EEA
:1040800029466A1CD5B2BB4A505442222146641CC0
:10409000BB48425454222146641C42541E222146ED
:1040A000641C4254B44802782146641CB44842540B
:1040B000F5222146641C425400222146641C4254CD
:1040C0002146641C42542046611CCCB2AC490A54BF
:1040D0002046611CCCB2AA490A54A848027821465D
:1040E000601CC4B2A6484254A4480088C0F307220A
:1040F0002046611CCCB2A2490A54A0480068C0F313
:1041000007422046611CCCB29D490A549B48006876
:10411000000E2146621CD4B2994A50544FF00A0A4C
:104120000026DCE006220DF10601304600F09AFA86
:1041300007220DF10701304600F094FA082202A987
:10414000304600F08FFA8F4800EB860090ED000AB1
:1041500010EE101A0846FCF74DF841EC180B0DF163
:10416000060001F05BFA00EE100AB8EEC00A10EE8D
:10417000109A4846FCF73EF841EC190BB0EE481A8D
:10418000F0EE681AB0EE490AF0EE690AFCF70AF898
:104190007D4988420CDA0DF1060001F03FFA00EE8D
:1041A000100AB8EEC00A774800EB860080ED000ADE
:1041B00006220DF10601304600F054FA07220DF1F7
:1041C0000701304600F04EFA082202A9304600F0FE
:1041D00049FA6C4800EB860090ED000A10EE101AC8
:1041E0000846FCF707F841EC180B0DF1060001F04A
:1041F00015FA00EE100AB8EEC00A10EE109A484602
:10420000FBF7F8FF41EC190BB0EE481AF0EE681A14
:10421000B0EE490AF0EE690AFBF7C4FF5A4988423A
:104220000CDA0DF1060001F0F9F900EE100AB8EE13
:10423000C00A544800EB860080ED000A514800EBAC
:10424000860090ED000A514800EB8600D0ED000A90
:1042500030EE600A4E4800EB860080ED000A4C48C4
:1042600000EB860090ED000ABDEEC00A10EE100AC9
:10427000C2B22046611CCCB241490A54444800EB0A
:10428000860090ED000ABDEEC00A10EE100AC0F3E1
:1042900007222046611CCCB239490A543C4800EB45
:1042A000860090ED000ABDEEC00A10EE100AC0F3C1
:1042B00007422046611CCCB231490A54344800EB15
:1042C000860090ED000ABDEEC00A10EE100A020E44
:1042D0002146601CC4B22A484254701CC6B2042E47
:1042E000FFF620AF2B49DFF8A8C0DCE90103DCF8BA
:1042F0000020DCF80CC0C1E9023CC1E9002000F05C
:104300002FFD1F480119244802680A6042684A606C
:104310008068886004F10C00C4B24FF000080227E6
:1043200006E01448C05D404400F0FF08781CC7B2A6
:10433000AF42F6DB2846691CCDB20E4901F8008079
:104340004FF00008022706E00D48C05D404400F031
:10435000FF08781CC7B2A742F6DB2046611CCCB22E
:10436000074901F80080002003B0BDEC048BBDE8D4
:10437000F08F0000340B0020004C000810000020DB
:10438000980B0020C40C0020A0860100D40C002053
:10439000E40C0020BC0D0020CC0D00207047000074
:1043A00000B585B00020019002900390049000BFFA
:1043B00000903148806940F004002F498861084628
:1043C000806900F00400009000BF00BF1020019041
:1043D00001200290002003900320049001A92748A7
:1043E000FCF7A8FA012210212448FCF7EDFB00BFDE
:1043F000002000902048806940F008001E49886134
:104400000846806900F00800009000BF00BF8814D3
:10441000019001200290002003900320049001A944
:104420001748FCF787FA012211031548FCF7CCFB6B
:1044300000BF002000901048806940F010000E4935
:1044400088610846806900F01000009000BF00BF3E
:10445000502001900120029000200390032004903E
:1044600001A90848FCF766FA012250210548FCF72B
:10447000ABFB05B000BD0000001002400008014089
:10448000000C014000100140F8B504460E461546E8
:104490006068B0F5827F0DD1A068B0F5004F03D001
:1044A000A068B0F5806F05D12068006820F040005A
:1044B000216808606068B0F5827F1FD1A068B0F500
:1044C000806F0DD03346002280212046009500F0F9
:1044D0005BF808B3606D40F0200060650320F8BD14
:1044E0003346002201212046009500F04DF898B196
:1044F000606D40F0200060650320F0E73346002245
:1045000001212046009500F03FF828B1606D40F091
:10451000200060650320E2E70020E0E77CB5044668
:104520000D461646164800681821B0FBF1F01549F3
:10453000B0FBF1F04FF47A71484301906068B0F538
:10454000827F0DD12B46002280212046009600F06C
:104550001BF898B1606D40F02000606503207CBDC1
:1045600000BF019800B908E00198401E0190206842
:104570008068C0F3C0100028F3D100BF0020EEE730
:104580000000002040420F002DE9F84F04460D4680
:1045900090461E46DDF82890FCF71CFBA0EB0900B6
:1045A000371AFCF717FB82462C480068C0F3CB3063
:1045B0007843009045E0701C002842D0FCF70AFBCD
:1045C000A0EB0A00B84200D2A7BB2068406820F0E8
:1045D000E000216848606068B0F5827F0DD1A06876
:1045E000B0F5004F03D0A068B0F5806F05D120680A
:1045F000006820F0400021680860A06AB0F5005F04
:104600000DD100BF2068006820F4005021680860C8
:104610002068006840F400502168086000BF012055
:1046200084F8510000BF002084F8500000BF032030
:10463000BDE8F88FFFE7009800B900270098401EFA
:104640000090206880682840A84201D1012000E045
:1046500000204045AFD10020EAE700000000002024
:1046600070470000F8B504460E461546174F042C57
:1046700000DBF8BD164A32F81410164A52F824002E
:104680000022FCF7A1FA802000904FF47A730122F7
:1046900069463846FDF7AEFD00954FF47A73012266
:1046A00069463846FDF7A6FD4FF47A73012231467C
:1046B0003846FDF783FC064A32F81410054A52F8D2
:1046C00024000122FCF780FA00BFD2E7D0080020C6
:1046D0004000002030000020F8B504460D46164684
:1046E000184F042C00DBF8BD174A32F81410174A93
:1046F00052F824000022FCF767FA002000904FF4E3
:104700007A73012269463846FDF774FD00954FF42F
:104710007A73012269463846FDF76CFD00964FF426
:104720007A73012269463846FDF764FD064A32F87D
:104730001410064A52F824000122FCF745FA00BF83
:10474000D1E70000D0080020400000203000002009
:1047500010B5FCF777FE10BD72B600214FF0E022D5
:10476000116151619161002009E04FF0FF321A4957
:1047700041F82020194941F82020411CC8B20828DE
:10478000F3D31749096841F47001154A11601549BE
:10479000096841F00101134A116011464968124A43
:1047A0001140104A516011460968104A11400D4AE3
:1047B00011601146096821F4802111601146496891
:1047C00021F4FE0151604FF41F019160D103044AAE
:1047D000803A116062B6704780E100E080E200E05C
:1047E00088ED00E0001002400000FFF8FFFFF6FE39
:1047F00070B505466C6A0020E085E0842046FEF72F
:1048000034F870BD70B506460025746A20684069AA
:10481000C0F3C01594F84100212805D125B100202E
:10482000E084204600F0C8F820684069C0F3801595
:1048300094F84200222805D125B10020E0852046C9
:1048400000F074F8606C40F0100060642046FEF7E1
:104850000CF870BD70B505466C6A2868006800F0F9
:104860002000002842D1E08500BF00BF21680C3144
:1048700051E8001F21F4807021680C3141E80002EA
:10488000002AF3D100BF00BF00BF2168143151E8F6
:10489000001F21F001002168143141E80002002AC4
:1048A000F3D100BF00BF00BF2168143151E8001FE1
:1048B00021F040002168143141E80002002AF3D1C0
:1048C00000BF202084F84200206B01280ED100BFD9
:1048D00000BF21680C3151E8001F21F01000216851
:1048E0000C3141E80002002AF3D100BF00206063D0
:1048F000206B012804D1A18D2046FDF770FF02E056
:104900002046FEF731F970BD70B505466C6A01208E
:104910006063206B012805D1A08D41082046FDF77A
:104920005EFF02E02046FEF720F970BD00BF00BF29
:1049300002680C3252E8002F22F4907102680C32A7
:1049400042E80013002BF3D100BF00BF00BF026894
:10495000143252E8002F22F001010268143242E8BA
:104960000013002BF3D100BF016B01290ED100BF52
:1049700000BF02680C3252E8002F22F010010268DA
:104980000C3242E80013002BF3D100BF202180F845
:10499000421000210163704710B504462068C068CA
:1049A00020F040002168C860202084F841002046A3
:1049B000FEF74BF9002010BD00BF00BF02680C32AB
:1049C00052E8002F22F0C00102680C3242E80013C6
:1049D000002BF3D100BF202180F841107047F8B5BB
:1049E000044694F84200222875D1A068B0F5805F93
:1049F0000CD1206950B90025A66A20684068C0F330
:104A000008003080A06A801CA06215E0A56A00261C
:104A1000A068B0F5805F03D0A06828B9206918B9F4
:104A200020684068287004E02068406800F07F003B
:104A30002870A06A401CA062E08D401E80B2E08514
:104A4000002846D12068C06820F020002168C86096
:104A50002068C06820F480702168C86020684069C0
:104A600020F0010021684861202084F842000020E5
:104A70006063206B012826D10020206300BF00BFA7
:104A800021680C3151E8001F21F0100021680C3121
:104A900041E80002002AF3D100BF2068006800F05E
:104AA000100010280AD100BF002000902068006884
:104AB000009020684068009000BF00BFA18D204694
:104AC000FDF78DFE02E02046FEF74EF80020F8BD0F
:104AD00001E00020FBE70220F9E7000077B581B094
:104AE000044615460298A062A58500206064222035
:104AF00084F842002A48E16B88622A48E16BC86268
:104B00002948E16B88630020E16BC86302AE32681C
:104B10002368191D2B46E06BFBF720FD00BF00202A
:104B2000009020680068009020684068009000BFF6
:104B300000BF00BF002084F8400000BF206970B1B2
:104B400000BF00BF21680C3151E8001F41F48070A4
:104B500021680C3141E80002002AF3D100BF00BFF8
:104B600000BF2168143151E8001F41F001002168A5
:104B7000143141E80002002AF3D100BF00BF00BF9A
:104B80002168143151E8001F41F0400021681431C0
:104B900041E80002002AF3D100BF002004B070BD3C
:104BA000554800080949000805480008014691F8E1
:104BB0004100212828D18868B0F5805F0BD10869B1
:104BC00048B90A6A1088C0F308000B685860086A80
:104BD000801C086205E00B6A581C086218780B6894
:104BE0005860C88C401E80B2C88458B90868C06834
:104BF00020F080000B68D8600868C06840F0400072
:104C00000B68D860002070470220FCE72DE9F041D6
:104C100004460D4617469846069E34E0701C88B33D
:104C20002EB1FBF7D7FFA0EB0800B0422BD900BF95
:104C300000BF21680C3151E8001F21F4D0702168B9
:104C40000C3141E80002002AF3D100BF00BF00BFD1
:104C50002168143151E8001F21F00100216814314E
:104C600041E80002002AF3D100BF202084F841006F
:104C700084F8420000BF002084F8400000BF0320F9
:104C8000BDE8F081FFE7206800682840A84201D114
:104C9000012000E00020B842C0D00020F0E7000072
:104CA00010B50248FDF7ECFD10BD00001007002014
:104CB00010B50248FDF7E4FD10BD0000F00700202C
:104CC00000BFFEE702480068C0F302207047000002
:104CD0000CED00E010B5002804DB0A07130E054AAE
:104CE000135406E00A07140E034A00F00F031B1FBB
:104CF000D45410BD00E400E018ED00E010B52DED37
:104D0000028BB1EEC08A18EE100A20F00040C0F10C
:104D1000FF40C00F0AD010EE100A20F00040C0F192
:104D2000FF40C00F04BF012000F014F8B0EE480AA5
:104D3000BDEC028B10BD02E008C8121F08C1002A9A
:104D4000FAD170477047002001E001C1121F002A0C
:104D5000FBD170470149086070470000EC06002055
:104D600010B588B004A9274800F06EF80446042C5A
:104D700045DB01A802AB03AA04A90090214800F07A
:104D800047FB9DED030A204880ED000A9DED020AD5
:104D900080ED010A90ED020ADDED010AB4EEE00AB1
:104DA000F1EE10FA10D290ED020ADDED010A30EEBC
:104DB000C00ADFED160AB4EEE00AF1EE10FA03D2F3
:104DC0009DED010A80ED020A0F4890ED020ADDED2B
:104DD000010AB4EEE00AF1EE10FA10DD90ED020ADD
:104DE000DDED010A30EE600ADFED080AB4EEE00AFC
:104DF000F1EE10FA03D29DED010A80ED020A08B02F
:104E000010BD0000BC0D0020CC0D00200000484269
:104E100010B50346DFED0B0AB0EE600A00200EE08D
:104E200003EB800494ED001A01EB8004D4ED001A2A
:104E3000F0EE400A41EE210AB0EE600A401C9042BA
:104E4000EEDB10BD0000000070B52DED048BCEB080
:104E500005460E4695ED000A8DED040A95ED010A12
:104E60008DED050A95ED020A8DED060A95ED030A12
:104E70008DED070A00243FE004EB4400364901EBC6
:104E8000C00090ED020A8DED000A04EB440001EB36
:104E9000C00090ED030A8DED010A04EB440001EB24
:104EA000C00090ED040A8DED020A04EB440001EB12
:104EB000C00090ED050A8DED030A0422694604A89E
:104EC000FFF7A6FFB0EE408A042104A800F0EAFB39
:104ED000F0EE408A0421684600F0E4FBB0EE409A10
:104EE0009FED1E0A08EE890AC8EE000A08A800EB2A
:104EF0008400C0ED000A641C194800688442BBDBD2
:104F0000002021E00146421C10E008AB03EB8203C5
:104F100093ED000A08AB03EB8103D3ED000AB4EE76
:104F2000E00AF1EE10FA00DD1146521C0C4B1B6832
:104F30009A42EADB46F820109FED0A0A08AA02EB23
:104F4000810282ED000A401C0428DBDB04204EB005
:104F5000BDEC048B70BD0000480000205F708930FC
:104F6000D8060020000080FF08B5FBF753FB0222A3
:104F7000FD49FE48FCF7CEF9FFF712FAFCF7A6FC54
:104F8000FB4908600020009008E00099C8B2242284
:104F90000021FFF7A1FB0098401C00900098042816
:104FA000F3D34FF47A70FBF721FB0020009008E068
:104FB0000099C8B281220021FFF78EFB0098401CA7
:104FC000009000980428F3D30020009026E0009978
:104FD000C8B20022A421FFF77FFB0099C8B2922239
:104FE000A521FFF779FB0099C8B26022A621FFF73F
:104FF00073FB0099C8B20022A721FFF76DFB00994F
:10500000C8B240226A21FFF767FB0099C8B26A2242
:105010006C21FFF761FB0098401C00900098042869
:10502000D5D34FF47A70FBF7E1FAFEF7D7FFFEF71E
:10503000D5FF41F28830FBF7D9FACE48CE4D2ECDC0
:105040002EC00024D6E1FEF7C9FFCC480078012825
:1050500022D1FEF7C3FF0020C8490870C848FDF7F9
:1050600005FC202817D16421C648FBF7B8F8642254
:10507000C449C348FDF770FB68B1C148FDF7B0FBF8
:105080000120FBF7B3FA6422BE49BD48FDF764FB7B
:1050900008B1FDF70AFEADE1BB48007801287DD1DB
:1050A000B848C478C078022809DBB648C07806281A
:1050B00005DCB448C078401CB249C8700CE0B14867
:1050C000C078072808DBAF48C0780B2804DCAD485F
:1050D000C078801CAB49C870AA49C8782422002136
:1050E000FFF7FAFA4FF4FA60FBF780FAA549C8789F
:1050F00081220021FFF7F0FAA2490A79C878AA2193
:10510000FFF7EAFA9F494A79C878AB21FFF7E4FA3A
:105110009C498A79C878AC21FFF7DEFA9949CA79A7
:10512000C878AD21FFF7D8FA96490A7AC878AE2137
:10513000FFF7D2FA93494A7AC878AF21FFF7CCFA41
:1051400090498A7AC878B021FFF7C6FA8D49CA7AA1
:10515000C878B121FFF7C0FA8A490A7BC878B22122
:10516000FFF7BAFA87494A7BC878B321FFF7B4FA48
:1051700084498A7BC878B421FFF7AEFA8149CA7B9B
:10518000C878B521FFF7A8FA7E490A7CC878B6210D
:10519000FFF7A2FA7B494A7CC87800E04AE0B721D1
:1051A000FFF79AFA77498A7CC878B821FFF794FA12
:1051B0007449CA7CC878B921FFF78EFA71490A7D13
:1051C000C878BA21FFF788FA6E494A7DC878BB21B2
:1051D000FFF782FA6B498A7DC878BC21FFF77CFA19
:1051E0006849CA7DC878A221FFF776FA6549C87870
:1051F00040226A21FFF770FA6249C8786A226C215E
:10520000FFF76AFA5F48C470182201465F48FAF750
:10521000CDFF182000F014FA00205B4908705C48AC
:1052200000785C4908700120487004225848FDF756
:105230004EFEDFE05848007801287DD15148C478FF
:10524000C078022809DB4F48C078062805DC4D48A5
:10525000C078401C4B49C8700CE04A48C078072809
:1052600008DB4848C0780B2804DC4648C078801C1E
:105270004449C8704349C878AA22091DFFF7F2F9CA
:105280004049C878AB22491DFFF7ECF93D49C87881
:10529000AC22891DFFF7E6F93A49C878AD22C91D4D
:1052A000FFF7E0F93749C878AE220831FFF7DAF99D
:1052B0003449C878AF220931FFF7D4F93149C878A9
:1052C000B0220A31FFF7CEF92E49C878B1220B314E
:1052D000FFF7C8F92B49C878B2220C31FFF7C2F9A1
:1052E0002849C878B3220D31FFF7BCF92549C878A1
:1052F000B4220E31FFF7B6F92249C878B5220F3132
:10530000FFF7B0F91F49C878B6221031FFF7AAF9A4
:105310001C49C878B7221131FFF7A4F91949C87898
:10532000B8221231FFF79EF91649C878B922133115
:10533000FFF798F9134900E040E0C878BA22143129
:10534000FFF790F90F49C878BB221531FFF78AF9AA
:105350000C49C878BC221631FFF784F90949C8788E
:10536000A22217311AE0000020000020800900204E
:10537000E0060020D40C0020C40C002028000020EF
:10538000F0070020600C002026000020FC0B00200D
:10539000004C00082A00002027000020FFF762F9D7
:1053A0001548C470182201461448FAF7FFFE182069
:1053B00000F046F90020124908701BE011480078FF
:1053C000012816D10C4880780F4908700A48C07827
:1053D000487004220D48FDF77AFD00200949087045
:1053E000642205490548FAF7E1FE042000F028F997
:1053F00000E000BF27E60000600C0020FC0B00204E
:1054000027000020250000202A000020004C000872
:105410002DE9F0472DED068B90B0064689461746DC
:105420009846DDF878A096ED000A8DED040A96ED19
:10543000010A8DED050A96ED020A8DED060A96ED3C
:10544000030A8DED070A042104A800F02BF9B0EE41
:10545000408A9FED6F0AF0EE408A9FED6D0AB0EE34
:10546000409A002456E059F8245005EB450069495C
:1054700001EBC00090ED020A8DED000A05EB45003E
:1054800001EBC00090ED030A8DED010A05EB45002C
:1054900001EBC00090ED040A8DED020A05EB45001A
:1054A00001EBC00090ED050A8DED030A0422694668
:1054B00004A8FFF7ADFCF0EE409A0421684600F026
:1054C000F1F8B0EE40AA9FED540A08EE0A0AC9EEC0
:1054D000800A08A800EB8400C0ED000A08A800EBD1
:1054E000840090ED000AF7EE000A30EEC00AF7EEF5
:1054F000000A80EE801A0CA800EB840080ED001AF0
:105500000CA800EB840090ED000A30EE280AF0EEC3
:10551000408A641C042CA6DB9FED3D0A87ED000A3F
:105520009FED3B0A88ED000A002462E00CA800EB26
:10553000840090ED000AC0EE280A0CA800EB84005D
:10554000C0ED000A59F8245097ED000A0CA800EBB2
:105550008400D0ED000A05EB45002E4901EBC000A8
:1055600090ED001A00EE810A87ED000A98ED000A1E
:105570000CA800EB8400D0ED000A05EB450001EB20
:10558000C00090ED011A00EE810A88ED000A05EBDB
:10559000450001EBC00090ED020A8DED000A05EB1D
:1055A000450001EBC00090ED030A8DED010A05EB0B
:1055B000450001EBC00090ED040A8DED020A05EBF9
:1055C000450001EBC00090ED050A8DED030A0421B2
:1055D000684600F067F8F0EE409A0CA800EB8400F3
:1055E000D0ED000A80EEA90A30EE090AB0EE409A2A
:1055F000641C042C9ADBB3EE040A28EE000A20EEA9
:10560000090A8AED000A10B0BDEC068BBDE8F087F0
:1056100000000000480000205F7089300146002033
:105620008A784B7842EA03200A7840EA024000F484
:10563000000212B140F07F4001E020F07F4070474F
:1056400070B5054600BF012211461348FBF7BCFAAE
:10565000012202211048FBF7B7FA00BF0120FAF738
:10566000C5FF0A232A460D490D48FDF77FFA044677
:105670000CB1FDF71AFB0120FAF7B8FF00BF0022BA
:1056800001210548FBF7A0FA002202210248FBF79E
:105690009BFA00BF70BD000000080140FC0B002019
:1056A000F007002070B52DED028B04460D469FEDEE
:1056B0000F0AB0EE408A00200EE004EB8001D1ED2D
:1056C000000A04EB800191ED001AB0EE480A00EEEA
:1056D000810AB0EE408A401CA842EEDBB0EE480AD8
:1056E000FFF70CFBBDEC028B70BD0000000000005A
:1056F0000000000000000000010203040607080982
:1057000000000000010203042857000800000020E8
:10571000F006000040020008BC5C0008F006002013
:10572000E80E0000464D000820050024F400011298
:10573000100403210100011006080140001004427A
:105740000C0822103A1310404233803F04401043AB
:10575000D347C0B7484880EED247008883461850E8
:10576000120040C06A3048202A8548C0923948005B
:10577000B6A91850124040C019954820068F48A07D
:1057800040A748000CC71840138040C07FD148E0B4
:105790004A8E4860FCFF4800200047185012A04085
:1057A000A038F648C0CA6948B0FB2B490024E9304C
:1057B0005012C04010F5074940426048F017574961
:1057C00000CC13305012E0407070134940415648ED
:1057D00040C682490074514850120041302D1A4988
:1057E00000334B48E0FC8949809B8D60501210418A
:1057F00020B71849809637485092794980E4AB78B1
:10580000501220416024044980640948C0883B4903
:10581000005EA49050123041801BE44880DEE047D7
:10582000606A0C4900A3C0A850124041C0D4AD48E2
:105830000031AA478012C0480025D9C04413504106
:105840008040624800F77147C0876648C0301D48F5
:10585000381012604100BB0548003F2D4780DCFE38
:105860004740A64818370040501006C7D547405B50
:10587000AC161F504004E23247181539500F804FC4
:105880004830230749C07C584800652F181117502D
:105890000FD9B3484090124960DAC348003D6918F7
:1058A0005012804040B9E94800B0FE4850340549E4
:1058B000803480185012A040506C064980A0B64831
:1058C00080DD2A49008E79185012C040901916497F
:1058D000E07C9D4820B64E4980939A186012E040C3
:1058E00080B92449A00E8548A0CD754980D5C590C2
:1058F00050114140F52A49401E6D48C89C8149809D
:105900000BEC9050121041B0212E4980655A48305E
:10591000567349806211D850122041A07E294980D7
:10592000044548E0314949C0A94DF05412304110B6
:10593000FE0B49407E194820821649C03D7E08541E
:105940001240414025CF4880A9EC47C0A0D3484031
:10595000558C20140E5041407E7148805EA6474011
:10596000C267E456AC381550140FB7084800817B65
:1059700047000CF947C06DB868464050140B45010C
:1059800048D01C5E49800003A0435B47181989502A
:105990000FA07748102D5549C0627D4800A4831898
:1059A0001134100A5DC948803F424940C58053AC5C
:1059B00098185012804000BCEE4810201D49C0E6E7
:1059C000F84800CC9D185012A040B0C51149208362
:1059D000E548E0BA1D4980D9AA181805C040006200
:1059E00038500BACA2485016494980AAFA185012F8
:1059F000E04040694749C0258748B01D5849406884
:105A000020A85012004100584D4980C47848E0FD5C
:105A10004C4980BB4FC050121041008E3849C0C560
:105A20005248F0CC2F4920038DD81550500FA31C9D
:105A30004900003248B0F01149E0A1ABF0541230F7
:105A400041A01BF248C0EE134800DEE048C069CC1C
:105A500008541240418013964880D3E3472035898B
:105A60004800FFF62019A04410E52848009AB047E6
:105A70004054184810E703493815503410748C47C7
:105A8000007E9047005E7147A06A0B490429A0166A
:105A9000767C400CA102498077B347007811471803
:105AA0001DD903500FCC404800AEFD4880D83B487C
:105AB00000FE2F1850124040400EC248C00807494F
:105AC000009CB148003E7D1850128040208C28492F
:105AD000209AB6482019FE4880BA9D185012A0405E
